:100000000C942A000C943F000C943F000C943F0089
:100010000C943F000C943F000C943F000C943F0064
:100020000C943F000C943F000C943F000C943F0054
:100030000C943F000C943F000C943F000C943F0044
:100040000C943F000C943F000C943F000C943F0034
:100050000C943F0011241FBECFE5D8E0DEBFCDBF1A
:1000600010E0A0E6B0E0EEE4F5E002C005900D92ED
:10007000A037B107D9F70E9484020C94A5020C9412
:1000800000004423D1F58130A1F0813030F082307E
:10009000E1F0833009F067C024C02AB381E090E02A
:1000A00002C0880F991F6A95E2F7809582238ABB68
:1000B000089527B381E090E002C0880F991F6A95E8
:1000C000E2F78095822387BB089524B381E090E016
:1000D00002C0880F991F6A95E2F78095822384BB3E
:1000E000089521B381E090E002C0880F991F6A95BE
:1000F000E2F78095822381BB08954130A1F58130DC
:1001000091F0813028F08230C9F0833061F521C050
:100110002AB381E090E002C0880F991F6A95E2F748
:10012000282B2ABB089527B381E090E002C0880FF6
:10013000991F6A95E2F7282B27BB089524B381E025
:1001400090E002C0880F991F6A95E2F7282B24BB24
:10015000089521B381E090E002C0880F991F6A954D
:10016000E2F7282B21BB08954130B1F5813099F099
:10017000813030F08230D1F0833009F067C021C087
:100180002BB381E090E002C0880F991F6A95E2F7D7
:10019000282B2BBB089528B381E090E002C0880F84
:1001A000991F6A95E2F7282B28BB089525B381E0B3
:1001B00090E002C0880F991F6A95E2F7282B25BBB3
:1001C000089522B381E090E002C0880F991F6A95DC
:1001D000E2F7282B22BB08954423C1F5813099F022
:1001E000813028F08230D9F0833081F524C02BB3E0
:1001F00081E090E002C0880F991F6A95E2F7809530
:1002000082238BBB089528B381E090E002C0880F61
:10021000991F6A95E2F78095822388BB089525B3DC
:1002200081E090E002C0880F991F6A95E2F78095FF
:10023000822385BB089522B381E090E002C0880F3D
:10024000991F6A95E2F78095822382BB0895FA018F
:10025000813049F0813028F0823039F08330C1F4A8
:100260000EC089B303C086B301C083B390E002C05F
:10027000959587956A95E2F781708083089580B39C
:1002800090E002C0959587956A95E2F7817080832A
:100290000895813049F0813028F0823039F0833080
:1002A00041F406C06ABB089567BB089564BB089516
:1002B00061BB0895813049F0813028F0823039F0F7
:1002C000833041F406C06BBB089568BB089565BBDD
:1002D000089562BB0895FB01813049F0813028F018
:1002E000823039F0833051F407C089B303C086B33C
:1002F00001C083B38083089580B3808308951F93E2
:10030000182F83E062E040E00E94B40083E061E0E7
:1003100040E00E94B40080E0612F0E945A0183E017
:1003200060E041E00E94B40080EA9FE00197F1F7AD
:1003300083E060E040E00E94B4001F9108950F93B5
:100340001F9380E991E028EC30E0F9013197F1F753
:100350000197D9F78CE30E947F0100ED17E0C801F7
:100360000197F1F78CE00E947F01C8010197F1F736
:1003700081E00E947F011F910F9108951F93182F14
:1003800083E062E041E00E94B40083E061E040E08D
:100390000E94B40080E0612F0E945A0183E060E077
:1003A00041E00E94B40080EA9FE00197F1F783E00A
:1003B00060E040E00E94B4001F9108958F929F92E8
:1003C000BF92CF92DF92EF92FF920F931F93DF9332
:1003D000CF93CDB7DEB769970FB6F894DEBF0FBEE7
:1003E000CDBF91E0998383E08A8382E08B831C8276
:1003F0009D8385E08E8384E08F8386E0888787E015
:100400008987DE011A96E0E6F0E080E101900D9226
:100410008150E1F7EE24FF2432E0832E912C8C0EE4
:100420009D1E6E010894C11CD11CF401EE0DFF1D30
:10043000B08081E06B2D40E00E94B4001E8181E01D
:10044000612FA6010E9427018981882319F480E089
:1004500090E025C01F8181E0612FA6010E94270145
:100460008981882319F481E090E019C0188581E022
:10047000612FA6010E9427018981882319F482E057
:1004800090E00DC081E067E0A6010E94270189810C
:10049000882311F004E616C083E090E017E0F7012E
:1004A000EE0FFF1FEE0FFF1FEC0DFD1DE80FF91FF4
:1004B000018505C081E0612FA6010E942701898185
:1004C0008823C1F381E06B2D41E00E94B400043623
:1004D00041F40894E11CF11C84E0E816F10409F0F1
:1004E000A4CF802F69960FB6F894DEBF0FBECDBFA4
:1004F000CF91DF911F910F91FF90EF90DF90CF9000
:10050000BF909F908F90089580E06FEF0E94490107
:1005100080E060E00E945A0183E06FEF0E94490191
:1005200083E060E00E945A010E949F0181E06FE039
:100530000E94490181E06FEF0E945A010E94DE0192
:0E0540008436E1F30E94BE01F9CFF894FFCF9C
:10054E00313233343536373839306D6F617A212197
:00000001FF
