:100000000C942A000C9447000C9447000C94470071
:100010000C9447000C9447000C9447000C94470044
:100020000C9447000C9447000C9447000C94470034
:100030000C9447000C9447000C9447000C94470024
:100040000C9447000C9447000C9447000C94470014
:100050000C94470011241FBECFE5D8E0DEBFCDBF12
:1000600011E0A0E6B0E0E8EBFBE102C005900D92E4
:10007000AE37B107D9F711E0AEE7B1E001C01D928C
:10008000A238B107E1F70E949E090C94DA0D0C9496
:100090000000A0E0B0E0EFE4F0E00C94C70BDC015E
:1000A0002B01FA019C91923008F439C1EB0188814F
:1000B000823008F433C1943069F4843009F02FC1E0
:1000C00011969C9111978981981709F428C1A0E68F
:1000D000B0E025C1843009F421C18230A9F4923006
:1000E00009F01DC19A01AD0188E0EA010990AE0155
:1000F000E90109929E018150C1F7E20189811196BF
:100100009C918923818308C1923009F407C112961A
:100110002D903C901397EB018A819B811496AD90B2
:10012000BD90CD90DC901797EC80FD800E811F81F3
:100130009101281B390BB90137FF04C066277727C7
:10014000621B730B603271050CF061C0121613064E
:100150006CF537014801062E04C096948794779475
:1001600067940A94D2F721E030E040E050E004C008
:10017000220F331F441F551F6A95D2F7215030407C
:10018000404050402E213F2140235123211531056D
:100190004105510521F021E030E040E050E07901D7
:1001A0008A01E628F728082919293CC0232BD1F118
:1001B000260E371E35014601062E04C096948794FC
:1001C000779467940A94D2F721E030E040E050E061
:1001D00004C0220F331F441F551F6A95D2F72150C8
:1001E0003040404050402A213B214C215D212115C7
:1001F00031054105510521F021E030E040E050E0BB
:1002000059016A01A628B728C828D9280BC0821529
:1002100093052CF01C01AA24BB24650103C0EE2425
:10022000FF24870111969C91D20111968C91981709
:1002300009F445C0992339F0A80197012A193B090F
:100240004C095D0906C0A60195012E193F09400B16
:10025000510B57FD08C011823382228224833583DB
:10026000468357831DC081E08183338222828827A1
:100270009927DC01821B930BA40BB50B8483958318
:10028000A683B7830DC0220F331F441F551F24833D
:100290003583468357838281938101979383828339
:1002A0002481358146815781DA01C9010197A1096D
:1002B000B1098F5F9F4FAF4FBF4328F30BC09183AE
:1002C00033822282EA0CFB1C0C1D1D1DE482F58288
:1002D0000683178383E0808324813581468157819B
:1002E00057FF1AC0C901AA2797FDA095BA2F8170A0
:1002F0009070A070B0705695479537952795822BD2
:10030000932BA42BB52B84839583A683B7838281FB
:100310009381019693838283DF0101C0D201CD01D5
:10032000CDB7DEB7E2E10C94E30BA0E2B0E0EBE97D
:10033000F1E00C94D30B69837A838B839C832D83A8
:100340003E834F835887E9E0EE2EF12CEC0EFD1E24
:10035000CE010196B7010E946F058E010F5E1F4FFF
:10036000CE010596B8010E946F058A8991E0892720
:100370008A8BC701B801AE01475E5F4F0E944900FA
:100380000E949A04A096E6E00C94EF0BA0E2B0E085
:10039000ECECF1E00C94D30B69837A838B839C8320
:1003A0002D833E834F835887F9E0EF2EF12CEC0E1E
:1003B000FD1ECE010196B7010E946F058E010F5EF2
:1003C0001F4FCE010596B8010E946F05C701B80105
:1003D000AE01475E5F4F0E9449000E949A04A096BA
:1003E000E6E00C94EF0BA0E2B0E0E9EFF1E00C9452
:1003F000C70B69837A838B839C832D833E834F83D2
:100400005887CE010196BE01675F7F4F0E946F053E
:10041000CE010596BE016F5E7F4F0E946F059985E4
:10042000923088F089898230C8F0943019F4823093
:1004300051F404C0843029F4923081F480E690E0D5
:10044000C6C0923049F420E09A858A89981321E049
:100450002A87CE010996BBC0823049F420E09A85F4
:100460008A89981321E02A8BCE014196B0C02D8451
:100470003E844F8458886D887E888F88988CEE24BF
:10048000FF248701AA24BB24650140E050E060E01E
:1004900070E0E0E0F0E0C10181709070892BE9F03C
:1004A000E60CF71C081D191D9A01AB012A0D3B1D16
:1004B0004C1D5D1D80E090E0A0E0B0E0E614F70484
:1004C0000805190520F481E090E0A0E0B0E0BA0151
:1004D000A901480F591F6A1F7B1FAA0CBB1CCC1C0B
:1004E000DD1C97FE08C081E090E0A0E0B0E0A82A03
:1004F000B92ACA2ADB2A3196E032F10549F0660CA6
:10050000771C881C991C5694479437942794C3CF22
:10051000FA85EA892B893C898B859C85280F391FB0
:100520002E5F3F4F17C0CA0181709070892B61F018
:1005300016950795F794E79480E090E0A0E0B0E886
:10054000E82AF92A0A2B1B2B76956795579547952C
:100550002F5F3F4F77FDE7CF0CC0440F551F661F3D
:10056000771F17FD4160EE0CFF1C001F111F21506B
:100570003040403090E0590790E0690790E47907F7
:1005800060F32B8F3C8FDB01CA018F779070A070D6
:10059000B07080349105A105B10561F447FD0AC032
:1005A000E114F1040105110529F0405C5F4F6F4F24
:1005B0007F4F40781A8EFE1711F081E08A8F4D8FA1
:1005C0005E8F6F8F78A383E0898FCE0149960E945A
:1005D0009A04A096E2E10C94E30BA8E1B0E0E3EF0B
:1005E000F2E00C94CF0B69837A838B839C832D83F9
:1005F0003E834F835887B9E0EB2EF12CEC0EFD1EA5
:10060000CE010196B7010E946F058E010F5E1F4F4C
:10061000CE010596B8010E946F052985223008F4A5
:100620007EC03989323010F4B8017CC08A859A893D
:1006300089278A87243011F0223031F4231709F0FA
:100640006EC060E670E06EC0343039F41D861E86E0
:100650001F86188A1C861B8604C0323021F484E071
:100660008987B7015FC02B853C858B899C89281BB6
:10067000390B3C872B87ED84FE840F851889AD8864
:10068000BE88CF88D88CEA14FB040C051D0540F405
:10069000EE0CFF1C001F111F215030403C872B87A0
:1006A00020E030E040E050E080E090E0A0E0B0E406
:1006B00060E070E0EA14FB040C051D0540F0282BF7
:1006C000392B4A2B5B2BEA18FB080C091D09B69540
:1006D000A79597958795EE0CFF1C001F111F6F5F64
:1006E0007F4F6F31710531F7DA01C9018F77907053
:1006F000A070B07080349105A105B10561F427FDAB
:100700000AC0E114F1040105110529F0205C3F4FF6
:100710004F4F5F4F20782D873E874F87588BBE0104
:10072000675F7F4FCB010E949A046896EAE00C94C1
:10073000EB0BA8E0B0E0EFE9F3E00C94D00B9B01E9
:10074000AC0183E08983DA01C9018827B7FD83956D
:100750009927AA27BB27B82E211531054105510538
:1007600019F482E089833AC08823A9F0203080E020
:10077000380780E0480780E8580729F460E070E017
:1007800080E09FEC30C0EE24FF248701E21AF30AD8
:10079000040B150B02C079018A018EE1C82ED12C01
:1007A000DC82CB82ED82FE820F831887C801B701FD
:1007B0000E944B0401971816190684F4082E04C0F1
:1007C000EE0CFF1C001F111F0A94D2F7ED82FE826F
:1007D0000F831887C81AD90ADC82CB82BA82CE016D
:1007E00001960E949A042896E9E00C94EC0BACE088
:1007F000B0E0EDEFF3E00C94D70B69837A838B8341
:100800009C83CE010196BE016B5F7F4F0E946F05F6
:100810008D81823061F1823050F1843021F48E81FB
:10082000882351F12EC02F81388537FD20C06E817D
:100830002F3131051CF06623F9F023C08EE190E0E2
:10084000821B930B29853A854B855C8504C05695A0
:100850004795379527958A95D2F76623B1F050953D
:100860004095309521953F4F4F4F5F4F0EC020E090
:1008700030E040E050E009C02FEF3FEF4FEF5FE77F
:1008800004C020E030E040E050E8B901CA012C96F5
:10089000E2E00C94F30BEF92FF920F931F937B0116
:1008A0008C0180E0E81680E0F80681E0080780E02F
:1008B000180788F48FEFE816F1040105110531F0EF
:1008C00028F088E090E0A0E0B0E017C080E090E081
:1008D000A0E0B0E012C080E0E81680E0F80680E01A
:1008E000080781E0180728F088E190E0A0E0B0E078
:1008F00004C080E190E0A0E0B0E020E230E040E021
:1009000050E0281B390B4A0B5B0B04C0169507956A
:10091000F794E7948A95D2F7F701E859FF4F808161
:10092000281B310941095109C9011F910F91FF90FD
:10093000EF900895DF92EF92FF920F931F93FC01C7
:10094000E480F58006811781D1808081823048F46F
:1009500080E090E0A0E1B0E0E82AF92A0A2B1B2B06
:10096000A5C0843009F49FC0823021F4EE24FF2416
:10097000870105C0E114F1040105110519F4E0E057
:10098000F0E096C0628173819FEF623879070CF0C6
:100990005BC022E83FEF261B370B2A3131052CF0D4
:1009A00020E030E040E050E02AC0B801A701022E6C
:1009B00004C076956795579547950A94D2F781E0DC
:1009C00090E0A0E0B0E004C0880F991FAA1FBB1FF1
:1009D0002A95D2F70197A109B1098E219F21A02361
:1009E000B1230097A105B10521F081E090E0A0E0DE
:1009F000B0E09A01AB01282B392B4A2B5B2BDA0193
:100A0000C9018F779070A070B07080349105A105F6
:100A1000B10539F427FF09C0205C3F4F4F4F5F4FAE
:100A200004C0215C3F4F4F4F5F4FE0E0F0E02030CB
:100A3000A0E03A07A0E04A07A0E45A0710F0E1E07E
:100A4000F0E079018A0127C06038710564F5FB0187
:100A5000E158FF4FD801C7018F779070A070B07038
:100A600080349105A105B10539F4E7FE0DC080E49D
:100A700090E0A0E0B0E004C08FE390E0A0E0B0E040
:100A8000E80EF91E0A1F1B1F17FF05C016950795D4
:100A9000F794E794319687E016950795F794E794D5
:100AA0008A95D1F705C0EE24FF248701EFEFF0E02F
:100AB0006E2F679566276795902F9F77D794DD24D3
:100AC000D7948E2F8695492F462B582F5D29B70135
:100AD000CA011F910F91FF90EF90DF900895FC01E4
:100AE000DB01408151812281622F6F7770E0221FEC
:100AF0002227221F9381892F880F822B282F30E0F5
:100B0000991F9927991F11969C93119721153105CB
:100B1000A9F5411551056105710511F482E037C051
:100B200082E89FEF13969C938E9312979A01AB01E4
:100B300067E0220F331F441F551F6A95D1F783E0EA
:100B40008C930DC0220F331F441F551F12968D9199
:100B50009C911397019713969C938E931297203034
:100B600080E0380780E0480780E4580758F314967F
:100B70002D933D934D935C93179708952F3F310527
:100B800079F4411551056105710519F484E08C93E0
:100B9000089564FF03C081E08C9312C01C9210C0C2
:100BA0002F57304013963C932E93129783E08C93EB
:100BB00087E0440F551F661F771F8A95D1F7706431
:100BC00014964D935D936D937C93179708954423EA
:100BD000D1F58130A1F0813030F08230E1F0833006
:100BE00009F067C024C02AB381E090E002C0880FFA
:100BF000991F6A95E2F7809582238ABB089527B3EF
:100C000081E090E002C0880F991F6A95E2F7809515
:100C1000822387BB089524B381E090E002C0880F4F
:100C2000991F6A95E2F78095822384BB089521B3CA
:100C300081E090E002C0880F991F6A95E2F78095E5
:100C4000822381BB08954130A1F5813091F081303C
:100C500028F08230C9F0833061F521C02AB381E0E9
:100C600090E002C0880F991F6A95E2F7282B2ABBF3
:100C7000089527B381E090E002C0880F991F6A951C
:100C8000E2F7282B27BB089524B381E090E002C04F
:100C9000880F991F6A95E2F7282B24BB089521B38A
:100CA00081E090E002C0880F991F6A95E2F7282B37
:100CB00021BB08954130B1F5813099F0813030F099
:100CC0008230D1F0833009F067C021C02BB381E0BE
:100CD00090E002C0880F991F6A95E2F7282B2BBB82
:100CE000089528B381E090E002C0880F991F6A95AB
:100CF000E2F7282B28BB089525B381E090E002C0DD
:100D0000880F991F6A95E2F7282B25BB089522B317
:100D100081E090E002C0880F991F6A95E2F7282BC6
:100D200022BB08954423C1F5813099F0813028F029
:100D30008230D9F0833081F524C02BB381E090E07C
:100D400002C0880F991F6A95E2F7809582238BBBBA
:100D5000089528B381E090E002C0880F991F6A953A
:100D6000E2F78095822388BB089525B381E090E067
:100D700002C0880F991F6A95E2F78095822385BB90
:100D8000089522B381E090E002C0880F991F6A9510
:100D9000E2F78095822382BB0895FA01813049F001
:100DA000813028F0823039F08330C1F40EC089B32D
:100DB00003C086B301C083B390E002C095958795C8
:100DC0006A95E2F781708083089580B390E002C055
:100DD000959587956A95E2F78170808308958130B3
:100DE00049F0813028F0823039F0833041F406C078
:100DF0006ABB089567BB089564BB089561BB0895FD
:100E0000813049F0813028F0823039F0833041F46C
:100E100006C06BBB089568BB089565BB089562BBAF
:100E20000895FB01813049F0813028F0823039F09B
:100E3000833051F407C089B303C086B301C083B3C4
:100E40008083089580B380830895682F80E00E9496
:100E500000070895882319F08130B9F40AC0603181
:100E6000A8F0603210F4606111C0683270F4606202
:100E70000DC0603110F4606409C0603210F4606528
:100E800005C0683210F4606601C060E0862F0895E6
:100E900008951F93182F83E062E040E00E945A06F5
:100EA00083E061E040E00E945A0680E0612F0E94EA
:100EB000000783E060E041E00E945A0680EA9FE07C
:100EC0000197F1F783E060E040E00E945A061F912D
:100ED00008950F931F9380E991E028EC30E0F90129
:100EE0003197F1F70197D9F78CE30E94490700ED9C
:100EF00017E0C8010197F1F78CE00E944907C8018B
:100F00000197F1F781E00E9449071F910F91089521
:100F10001F93182F83E062E041E00E945A0683E0AD
:100F200061E040E00E945A0680E0612F0E940007C5
:100F300083E060E041E00E945A0680EA9FE001976A
:100F4000F1F783E060E040E00E945A061F910895A7
:100F50001F93142F0E942A0780680E944907812F3F
:100F60000E9488071F9108951F93CF93DF93EC0190
:100F700010E003C00E9488071F5FFE01E10FF11D12
:100F800080818823B9F7DF91CF911F9108950F9346
:100F90001F938A010E942A0780680E944907C8019E
:100FA0000E94B4071F910F9108958F929F92BF9254
:100FB000CF92DF92EF92FF920F931F93DF93CF9325
:100FC000CDB7DEB769970FB6F894DEBF0FBECDBFC1
:100FD00091E0998384E08A8385E08B8386E08C832B
:100FE00087E08D831E829F8382E0888783E08987E4
:100FF000DE011A96EEE6F1E080E101900D9281505B
:10100000E1F7EE24FF2432E0832E912C8C0E9D1EFE
:101010006E010894C11CD11CF401EE0DFF1DB080BF
:1010200081E06B2D40E00E945A061E8181E0612F15
:10103000A6010E94CD068981882319F480E090E002
:1010400025C01F8181E0612FA6010E94CD06898104
:10105000882319F481E090E019C0188581E0612FA0
:10106000A6010E94CD068981882319F482E090E0D0
:101070000DC081E063E0A6010E94CD06898188232E
:1010800011F00AE016C083E090E013E0F701EE0FE4
:10109000FF1FEE0FFF1FEC0DFD1DE80FF91F01856F
:1010A00005C081E0612FA6010E94CD0689818823B9
:1010B000C1F381E06B2D41E00E945A060A3041F4F1
:1010C0000894E11CF11C84E0E816F10409F0A4CFB7
:1010D000802F69960FB6F894DEBF0FBECDBFCF91BB
:1010E000DF911F910F91FF90EF90DF90CF90BF9015
:1010F0009F908F9008954F925F926F927F928F9200
:101100009F92AF92BF92CF92DF920F93DF93CF93D4
:10111000CDB7DEB728970FB6F894DEBF0FBECDBFB0
:101120002C010F2EF0E08F2EF0E09F2EF0E0AF2E7E
:10113000F0E0BF2EF02D66243AE0C32E772457C08E
:101140000E3219F1662019F5C501B40120E030E036
:1011500040E251E40E94F30169837A838B839C838C
:10116000602F70E060537040882777FD8095982F3E
:101170000E9499039B01AC0169817A818B819C81DA
:101180000E94C6014B015C0131C066246394DD24DA
:10119000602F70E060537040882777FD8095982F0E
:1011A0000E9499036D837E838F839887B601882779
:1011B00077FD8095982F0E9499039B01AC016D816A
:1011C0007E818F8198850E94ED029B01AC01C50153
:1011D000B4010E94C6014B015C01C60123E0880FE7
:1011E000991F2A95E1F7CC0CDD1CC80E7394F2010F
:1011F000E70DF11D0081002309F0A2CFB401C50164
:1012000028960FB6F894DEBF0FBECDBFCF91DF9109
:101210000F91DF90CF90BF90AF909F908F907F9075
:101220006F905F904F9008957F928F929F92AF92B0
:10123000BF92CF92DF92EF92FF920F931F93CF93C3
:10124000DF934A010E94F7035B016C0197FD02C026
:1012500077240DC08DE2F4018083D094C094B094C3
:10126000A094A11CB11CC11CD11C772473944AE02A
:10127000E42EF12C012D112D0AC0C801B7012AE07E
:1012800030E040E050E00E946B0B7B018C01C60116
:10129000B501A80197010E948A0B2115310541056E
:1012A000510559F7C801B7012AE030E040E050E0AD
:1012B0000E948A0BC901DA017C018D0122C0C80D90
:1012C000D91DC601B501A80197010E948A0B205DB6
:1012D0002883C601B501A80197010E948A0BAC01C1
:1012E000CB01DA015C016D01C801B7012AE030E0F1
:1012F00040E050E00E948A0BC901DA017C018D01B7
:101300007394C72DD0E01E141F0410061106BCF202
:10131000C80DD91D1882DF91CF911F910F91FF90B9
:10132000EF90DF90CF90BF90AF909F908F907F9085
:1013300008950E94D5078A30E1F308952F923F92D5
:101340004F925F926F927F928F929F92AF92BF92D5
:10135000CF92DF92EF92FF920F931F93DF93CF9381
:10136000CDB7DEB76D970FB6F894DEBF0FBECDBF19
:1013700080E06FEF0E94EF0680E060E00E940007CF
:1013800083E06FEF0E94EF0683E060E00E940007B9
:101390000E94690781E060EF0E94EF0681E06FEF35
:1013A0000E9400078FE00E94490728E0222E312C7E
:1013B0002C0E3D1ECE0101969D8F8C8FD101E4E154
:1013C0001D92EA95E9F781E090E00E94FE0B2C0166
:1013D00084E090E00E94FE0B4C0180E090E0A0E8E9
:1013E000BFE3F40180839183A283B383D2011C9273
:1013F000662474C00F5F0E949909782E0E948807A6
:10140000872D80538A3018F0BEE27B1689F4E02FD6
:10141000F0E0D101AE0FBF1F7C9289E090E08C0F0D
:101420009D1FE80FF91F10829DE3791619F772C00E
:10143000A62CBB24ADE37A1609F452C0F201EA0DE2
:10144000FB1D70828501000F111F000F111F080D79
:10145000191DF801C080D180E280F380C1010E9493
:101460007B089B01AC01C701B6010E94F301D801C2
:101470006D937D938D939C93139785010E5F1F4F02
:10148000C201B8010E94030D2C01000F111F000FB3
:10149000111FC401B8010E94030D4C01C501019642
:1014A000F201E80FF91F1082FC01EE0FFF1FEE0F93
:1014B000FF1FBDE27B1639F4E80DF91D80E090E0D6
:1014C000A0E8BFEB06C0E80DF91D80E090E0A0E8C1
:1014D000BFE380839183A283B383639400E08BCFC7
:1014E0008501000F111F000F111F080D191DD801D4
:1014F000CD90DD90ED90FC90C1010E947B089B0196
:10150000AC01C701B6010E94F301F8016083718349
:1015100082839383EE241FC08F32E1F489010F5F31
:101520001F4F000F111F000F111F080D191D60E044
:1015300070E080E89FE3D8012D913D914D915C9141
:101540000E94ED02F8016083718382839383EAE253
:10155000D601EC93E3942E2D30E06201C20ED31E2F
:10156000D6018C918823C1F60F2EF0E0AF2EF0E06B
:10157000BF2EF0E0CF2EF0E0DF2EF02DA60195017A
:10158000EE2477245FC0EE2099F5EA3209F04EC0D0
:101590007C01EE0CFF1CEE0CFF1CE80CF91C8C010E
:1015A0000F5F1F4F000F111F000F111F080D191D96
:1015B000F7016081718182819381D8012D913D91E4
:1015C0004D915C910E94F3019B01AC0180E090E0A1
:1015D000A0E0B0E0F80180839183A283B383F70198
:1015E00080839183A283B3837394EE24E39429C010
:1015F000EA32E1F48C01000F111F000F111F080DDA
:10160000191DCA01B901D8012D913D914D915C91EF
:101610000E94F3019B01AC0180E090E0A0E0B0E00B
:10162000F80180839183A283B3830BC0C601B50107
:101630000E94C6015B016C0120E030E040E050E018
:10164000EE247394872D90E0F201E80FF91FE081FA
:10165000EE2309F098CFC601B5010E94C60100E053
:10166000E02FF0E0EE0FFF1FEE0FFF1FE80DF91D5A
:1016700020813181428153810E94C6010F5F601633
:1016800078F7AC8DBD8DE7E01D92EA95E9F7AE01E4
:101690004F5F5F4F0E9414098CE00E94490782E06F
:1016A0000E94490781E06AE0AE014F5F5F4F0E94F0
:1016B000C7070E94990981E00E9449078FE00E94B4
:1016C000490786E00E944907C2010E94AB0CC40191
:1016D0000E94AB0C73CE629FD001739FF001829F7A
:1016E000E00DF11D649FE00DF11D929FF00D839FB1
:1016F000F00D749FF00D659FF00D9927729FB00D4E
:10170000E11DF91F639FB00DE11DF91FBD01CF0160
:101710001124089597FB092E05260ED057FD04D0FD
:1017200014D00AD0001C38F450954095309521957E
:101730003F4F4F4F5F4F0895F6F790958095709506
:1017400061957F4F8F4F9F4F0895A1E21A2EAA1BDC
:10175000BB1BFD010DC0AA1FBB1FEE1FFF1FA21761
:10176000B307E407F50720F0A21BB30BE40BF50B5E
:10177000661F771F881F991F1A9469F760957095E7
:10178000809590959B01AC01BD01CF0108952F92EA
:101790003F924F925F926F927F928F929F92AF9201
:1017A000BF92CF92DF92EF92FF920F931F93CF934E
:1017B000DF93CDB7DEB7CA1BDB0B0FB6F894DEBFE5
:1017C0000FBECDBF09942A88398848885F846E840B
:1017D0007D848C849B84AA84B984C884DF80EE8055
:1017E000FD800C811B81AA81B981CE0FD11D0FB65E
:1017F000F894DEBF0FBECDBFED010895CF93DF9308
:10180000BC018230910510F462E070E0A09180018B
:10181000B0918101ED01E0E0F0E040E050E021C056
:10182000888199818617970769F48A819B8130970F
:1018300019F09383828304C0909381018093800187
:10184000FE0134C06817790738F44115510519F0C5
:101850008417950708F4AC01FE018A819B819C01E5
:10186000E9012097E9F641155105A9F1CA01861B46
:10187000970B049708F4BA01E0E0F0E02AC08D91DC
:101880009C91119784179507F9F46417750781F4F3
:1018900012968D919C911397309719F093838283C0
:1018A00004C09093810180938001FD0132964FC066
:1018B000CA01861B970BFD01E80FF91F6193719315
:1018C00002978D939C9343C0FD01828193819C017B
:1018D000D9011097A1F680917E0190917F01892B0B
:1018E00041F480916A0190916B0190937F01809304
:1018F0007E0140916C0150916D014115510541F4FB
:101900004DB75EB78091680190916901481B590BF2
:1019100020917E0130917F0124173507B0F4CA0170
:10192000821B930B8617970780F0AB014E5F5F4FCA
:101930008417950750F0420F531F50937F01409337
:101940007E01F9016193719302C0E0E0F0E0CF0104
:10195000DF91CF910895CF93DF93009709F450C0A2
:10196000EC0122971B821A82A0918001B091810123
:10197000109709F140E050E0AC17BD0708F1BB83B8
:10198000AA83FE0121913191E20FF31FAE17BF0729
:1019900079F48D919C911197280F391F2E5F3F4F3D
:1019A0003983288312968D919C9113979B838A8308
:1019B0004115510571F4D0938101C093800120C07D
:1019C00012968D919C911397AD01009711F0DC0157
:1019D000D3CFFA01D383C28321913191E20FF31F58
:1019E000CE17DF0769F488819981280F391F2E5F90
:1019F0003F4FFA01318320838A819B8193838283C5
:101A0000DF91CF910895A0E0B0E0E9E0FDE00C9413
:101A1000CD0B8C01009729F4CB010E94FE0B8C01A9
:101A2000BAC09EEFE92E9FEFF92EE00EF11E58018D
:101A3000A60EB71EAE14BF0408F4ABC08EEF882EFE
:101A40008FEF982E8A0C9B1CE7014881598146171D
:101A50005707B8F04530510508F49DC0CA010497F6
:101A60008617970708F497C042505040461B570B03
:101A7000F4015183408379836883C5010E94AB0CD4
:101A80008AC06B01C41AD50AE0918001F0918101EE
:101A9000A0E0B0E0C0E0D0E042C0E815F905A1F553
:101AA000208131812C153D0578F1C90102968C15F4
:101AB0009D05A8F04E5F5F4F420F531FE70159830A
:101AC000488322813381109729F013963C932E93FB
:101AD000129761C030938101209380015CC0225035
:101AE00030402C193D0931832083109729F013963B
:101AF000FC93EE93129704C0F0938101E093800170
:101B0000F7017183608347C080819181C817D9072D
:101B100008F4EC01DF01828193819C01F901309787
:101B200009F0BBCF400F511F80917E0190917F0142
:101B300084179507E9F4C617D707D0F420916C01F4
:101B400030916D012115310541F42DB73EB78091DB
:101B5000680190916901281B390BA216B306C8F4DD
:101B6000B0927F01A0927E01E7017983688313C060
:101B7000CB010E94FE0BEC01009759F0F701408168
:101B80005181B8010E94D10DC8010E94AB0C8E0199
:101B900002C000E010E0C801CDB7DEB7ECE00C9465
:101BA000E90BFB01DC0102C001900D924150504055
:081BB000D8F70895F894FFCF67
:101BB800000000000000000000010202030303030C
:101BC80004040404040404040505050505050505C5
:101BD80005050505050505050606060606060606A5
:101BE800060606060606060606060606060606068D
:101BF8000606060606060606070707070707070775
:101C0800070707070707070707070707070707075C
:101C1800070707070707070707070707070707074C
:101C2800070707070707070707070707070707073C
:101C38000707070707070707080808080808080824
:101C4800080808080808080808080808080808080C
:101C580008080808080808080808080808080808FC
:101C680008080808080808080808080808080808EC
:101C780008080808080808080808080808080808DC
:101C880008080808080808080808080808080808CC
:101C980008080808080808080808080808080808BC
:101CA80008080808080808080808080808080808AC
:101CB80008080808080808082000820100003134D4
:0E1CC800373D323538303336392E2A2F2B2D4A
:00000001FF
