:100000000C942A000C9434000C9434000C943400AA
:100010000C9434000C9434000C9434000C94340090
:100020000C9434000C9434000C9434000C94340080
:100030000C9434000C9434000C9434000C94340070
:100040000C9434000C9434000C9434000C94340060
:100050000C94340011241FBECFE5D8E0DEBFCDBF25
:100060000E9492010C949D010C9400004423D1F550
:100070008130A1F0813030F08230E1F0833009F03E
:1000800067C024C02AB381E090E002C0880F991FA6
:100090006A95E2F7809582238ABB089527B381E0B1
:1000A00090E002C0880F991F6A95E2F7809582233D
:1000B00087BB089524B381E090E002C0880F991FA8
:1000C0006A95E2F78095822384BB089521B381E08D
:1000D00090E002C0880F991F6A95E2F7809582230D
:1000E00081BB08954130A1F5813091F0813028F035
:1000F0008230C9F0833061F521C02AB381E090E0FD
:1001000002C0880F991F6A95E2F7282B2ABB089531
:1001100027B381E090E002C0880F991F6A95E2F74B
:10012000282B27BB089524B381E090E002C0880FFC
:10013000991F6A95E2F7282B24BB089521B381E02B
:1001400090E002C0880F991F6A95E2F7282B21BB27
:1001500008954130B1F5813099F0813030F082302E
:10016000D1F0833009F05BC021C02BB381E090E077
:1001700002C0880F991F6A95E2F7282B2BBB0895C0
:1001800028B381E090E002C0880F991F6A95E2F7DA
:10019000282B28BB089525B381E090E002C0880F8A
:1001A000991F6A95E2F7282B25BB089522B381E0B9
:1001B00090E002C0880F991F6A95E2F7282B22BBB6
:1001C0000895442361F5813099F0813028F0823020
:1001D00079F0833021F518C02BB381E090E002C0A4
:1001E000880F991F6A95E2F7809582238BBB08954B
:1001F00028B381E090E002C0880F991F6A95E2F76A
:100200008095822388BB08952BB381E090E002C0E3
:10021000880F991F6A95E2F7809582238BBB08951A
:10022000FA01813049F0813028F0823039F0833092
:10023000C1F40EC08BB303C088B301C085B390E096
:1002400002C0959587956A95E2F78170808308953D
:1002500082B390E002C0959587956A95E2F7817028
:10026000808308956F3F89F4813049F0813028F010
:10027000823039F08330D9F406C06ABB089567BB79
:10028000089564BB089561BB0895662381F48130AD
:1002900049F0813028F0823039F0833041F406C0D3
:1002A0001ABA089517BA089514BA089511BA08959C
:1002B0006F3F89F4813049F0813028F0823039F085
:1002C0008330D9F406C06BBB089568BB089565BB45
:1002D000089562BB0895662381F4813049F081302E
:1002E00028F0823039F0833041F406C01BBA0895FB
:1002F00018BA089515BA089512BA0895FB0181300D
:1003000049F0813028F0823039F0833051F407C051
:100310008BB303C088B301C085B38083089582B3D3
:100320008083089580E060E041E00E94360080E034
:0E03300060E041E00E94A900FFCFF894FFCFEB
:00000001FF
